:1000000012C02AC08BC063C057C027C025C024C0FF
:1000100069C022C021C020C01FC01EC01DC01CC09E
:100020001BC01AC019C011241FBECFEDCDBF10E0F8
:10003000A0E6B0E0E4E5F2E002C005900D92A23641
:10004000B107D9F720E0A2E6B0E001C01D92A537C4
:10005000B207E1F776D0FCC0D3CF1F920F920FB654
:100060000F9211248F939F93AF93BF93809174004D
:100070008F5F8A3059F080937400BF91AF919F9148
:100080008F910F900FBE0F901F90189510927400D3
:100090008091700090917100A0917200B0917300F6
:1000A0000196A11DB11D8093700090937100A093E3
:1000B0007200B0937300E1CF1F920F920FB60F92B0
:1000C0001124DD980F900FBE0F901F9018951F926E
:1000D0000F920FB60F921124D89A0F900FBE0F9067
:1000E0001F9018951F920F920FB60F9211248F93A5
:1000F0008FB18A3A61F0803F71F0811102C080E4D3
:100100008EB98F910F900FBE0F901F901895809110
:100110006F008FB9F4CF80916E00FBCF1F920F92CA
:100120000FB60F9211248F93C69909C06E9A80E47E
:100130008EB98F910F900FBE0F901F9018956E98EB
:10014000F8CF8AB386608ABB81E088BD82B58064BF
:1001500082BD8BB785608BBF80B78F7780BF80B73C
:10016000826080BF8FB58B608FBD8FB58B7F8FBD59
:1001700087B5877F87BD86B58D7F86BD86B5816053
:1001800086BD89B7806689BF84E18BBD1DBC1CBC60
:10019000379A86B18C6086B93F9A1C9AB99AB898FA
:1001A00088B3816488BB6D986C9A6B9A6A987894CE
:1001B00030EA349B4AC020916000263060F1E2E6CC
:1001C000F0E087E0815069F04081518122813381E4
:1001D0002417350720F453834283318320833296DA
:1001E000F1CF86E0E82FF0E0DF01AA0FBB1FAE5988
:1001F000BF4F4D915C911197EE0FFF1FE05AFF4FDB
:10020000208131814217530720F4518340832D937D
:100210003C938150E7CFE22FF0E0EE0FFF1FEE5945
:10022000FF4F1182108284B1482F50E051834083E8
:1002300085B190E0982F882788279370842B952B81
:10024000918380832F5F2093600030936F00B1CF44
:04025000F894FFCF50
:020254000600A2
:00000001FF
